:100000000C9420010C9448010C9448010C94D407E2
:100010000C94D4070C94D4070C9448010C94480118
:100020000C9448010C9448010C9448010C9448012C
:100030000C9448010C9448010C9448010C9448011C
:100040000C948A070C9448010C9458070C943207BE
:100050000C9448010C9448010C9448010C944801FC
:100060000C9448010C94480107634236B79BD8A70B
:100070001A39685618AEBAAB558C1D3CB7CC5763CD
:10008000BD6DEDFD753EF6177231BF000000803F7B
:1000900008000000BE922449123EABAAAA2ABECD97
:1000A000CCCC4C3E00000080BEABAAAAAA3E000009
:1000B0000000BF000000803F000000000008417801
:1000C000D3BB4387D1133D190E3CC3BD4282AD2B38
:1000D0003E68EC8276BED98FE1A93E4C80EFFFBE30
:1000E00001C4FF7F3F000000000000407A10F35A77
:1000F00000A0724E18090010A5D4E80000E8764868
:10010000170000E40B54020000CA9A3B000000E113
:10011000F505000080969800000040420F000000A6
:10012000A08601000000102700000000E803000086
:1001300000006400000000000A0000000000010050
:10014000000000002C76D888DC674F0823DFC1DF71
:10015000AE59E1B1B796E5E3E453C63AE651997674
:1001600096E8E6C28426EB898C9B62ED407C6FFCAE
:10017000EFBC9C9F40F2BAA56FA5F490055A2AF7F0
:100180005C936B6CF9676DC11BFCE0E40D47FEF5F9
:1001900020E6B500D0ED902E030094357705008061
:1001A000841E080000204E0A000000C80C333333C0
:1001B000330F986E12831141EF8D2114893BE65560
:1001C00016CFFEE6DB18D1844B381BF77C1D901D43
:1001D000A4BBE424203284725E228100C9F124ECA5
:1001E000A1E53D2700000000240027002A000000B0
:1001F0000000250028002B0000000008000201007C
:1002000000030407000000000000000000000000E0
:100210002300260029000404040404040404020248
:100220000202020203030303030301020408102075
:100230004080010204081020010204081020DE079B
:1002400011241FBECFEFD8E0DEBFCDBF23E0A2E672
:10025000B2E001C01D92AC34B207E1F712E0A0E0B9
:10026000B1E0EEE4F9E202C005900D92A236B107CA
:10027000D9F711E0C0E2D1E004C02197FE010E944D
:10028000AD12CF31D107C9F70E942E080C94A514E6
:100290000C940000CF92DF92EF92FF92CF93809167
:1002A0003B038C3009F44FC038F48B30F1F060E040
:1002B00070E080EC9FE741C085518230C0F7C0916B
:1002C00037036C2F70E0762F662766277F77809143
:1002D0003803682B90E080E00E94E10E2DEC3CECAE
:1002E0004CEC5DE30E941E0F4AC06091370370E042
:1002F00090E080E00E94E10E6B017C01C091380328
:10030000C7FF0AC0AC019B0160E070E080E89FEB92
:100310000E9413106B017C01CF706C2F70E090E095
:1003200080E00E94E30E2DEC3CEC4CEC5DE30E947F
:100330001E0FA70196010E941410CF91FF90EF901D
:10034000DF90CF900895C09137036C2F70E090E05C
:1003500080E00E94E10E6B017C01609138036F70B8
:1003600070E090E080E00E94E30E2DEC3CEC4CEC61
:100370005DE30E941E0FA70196010E941410C7FFA3
:10038000DCCF9058DACFCF92DF92EF92FF92CF93EB
:10039000DF93B0913C03A0E08111AB2F80913D032E
:1003A00090E0880F991FAC01445F5D4FC0904203FD
:1003B000D0904303E0904403F090450330E020E008
:1003C000FA01C591D491E881B90190E080E0EB2376
:1003D000EA130AC02F5F3F4F6C157D058E059F0500
:1003E00078F36FEF7FEFCB01DF91CF91FF90EF902C
:1003F000DF90CF900895AF92BF92CF92DF92EF92AD
:10040000FF920F931F93CF93DF936C017B018B01BE
:10041000040F151FEB015E01AE18BF08C017D1070E
:1004200059F06991D601ED91FC910190F081E02D98
:10043000C6010995892B79F7C501DF91CF911F91ED
:100440000F91FF90EF90DF90CF90BF90AF90089505
:10045000FC01448155816081718187E992E00C94AF
:10046000FB01FC01538D448D252F30E0842F90E05B
:10047000821B930B541710F0CF960895019708959F
:10048000FC01918D828D981761F0A28DAE0FBF2F68
:10049000B11D5D968C91928D9F5F9F73928F90E0BE
:1004A00008958FEF9FEF0895FC01918D828D98172D
:1004B00031F0828DE80FF11D858D90E008958FEF6A
:1004C0009FEF0895FC01918D228D892F90E0805C33
:1004D0009F4F821B91098F739927089587E992E0B6
:1004E0000E94620221E0892B09F420E0822F089506
:1004F00080E090E0892B29F00E946E0281110C941B
:1005000000000895FC01A48DA80FB92FB11DA35AB6
:10051000BF4F2C91848D90E001968F739927848F23
:10052000A689B7892C93A089B1898C918370806446
:100530008C93938D848D981306C00288F389E02DE7
:1005400080818F7D80830895EF92FF920F931F9398
:10055000CF93DF93EC0181E0888F9B8D8C8D981376
:100560001AC0E889F989808185FF15C09FB7F89482
:10057000EE89FF896083E889F989808183708064CE
:1005800080839FBF81E090E0DF91CF911F910F9119
:10059000FF90EF900895F62E0B8D10E00F5F1F4F28
:1005A0000F731127E02E8C8D8E110CC00FB607FC37
:1005B000FACFE889F989808185FFF5CFCE010E94C5
:1005C0008202F1CFEB8DEC0FFD2FF11DE35AFF4FAF
:1005D000F0829FB7F8940B8FEA89FB898081806253
:1005E000CFCFCF93DF93EC01888D8823B9F0AA8910
:1005F000BB89E889F9898C9185FD03C0808186FDDE
:100600000DC00FB607FCF7CF8C9185FFF2CF80812C
:1006100085FFEDCFCE010E948202E9CFDF91CF911D
:10062000089590E0FC01E850FE4F2491FC01E65D46
:10063000FD4F3491FC01EA5EFD4FE491EE23C9F0D9
:10064000222339F0233001F1A8F4213019F12230AE
:1006500029F1F0E0EE0FFF1FE251FE4FA591B4919A
:100660008FB7F894EC91611126C030953E233C93EE
:100670008FBF08952730A9F02830C9F0243049F7FA
:10068000809180008F7D03C0809180008F77809360
:100690008000DFCF84B58F7784BDDBCF84B58F7DBD
:1006A000FBCF8091B0008F778093B000D2CF809144
:1006B000B0008F7DF9CF3E2BDACFCF93DF9390E060
:1006C000FC01E65DFD4F24918A5E9D4FFC01849103
:1006D0008823C9F090E0880F991FFC01EC51FE4F70
:1006E000A591B491FC01E251FE4FC591D4916111E5
:1006F0000DC09FB7F8948C91209582238C938881AC
:10070000282328839FBFDF91CF910895623051F451
:100710009FB7F8943C91822F809583238C93E88136
:100720002E2BEFCF8FB7F894EC912E2B2C938FBFFD
:10073000EACF8E3008F08E508770806480937C0002
:1007400080917A00806480937A0080917A0086FD9F
:10075000FCCF809178009091790008953FB7F8948C
:100760008091650290916602A0916702B091680243
:1007700026B5A89B05C02F3F19F00196A11DB11DFC
:100780003FBFBA2FA92F982F8827BC01CD01620F38
:10079000711D811D911D42E0660F771F881F991FF3
:1007A0004A95D1F708958F929F92AF92BF92CF92C0
:1007B000DF92EF92FF924B015C010E94AE036B014E
:1007C0007C010E94AE036C197D098E099F09683E69
:1007D000734081059105A8F321E0821A9108A108D0
:1007E000B10888EEC80E83E0D81EE11CF11C81140C
:1007F0009104A104B10429F7FF90EF90DF90CF900E
:10080000BF90AF909F908F900895CF92DF92EF921C
:10081000FF920F931F93CF93DF93CDB7DEB7C054F2
:10082000D1400FB6F894DEBF0FBECDBF2FB7F894FE
:100830008091930290919402A0919502B0919602BA
:100840002FBF40913E0350913F0360914003709150
:1008500041038C019D01041B150B260B370BB901BD
:10086000A801403D57406105710590F48091460311
:10087000C05CDE4F0FB6F894DEBF0FBECDBFDF9178
:10088000CF911F910F91FF90EF90DF90CF9008953F
:1008900080933E0390933F03A0934003B0934103A2
:1008A00010923903109238031092370310923603D6
:1008B0001092350362E080913A030E945D0361E08B
:1008C00070E080E090E00E94D30361E080913A0301
:1008D0000E945D0360E080913A030E9411038091C1
:1008E0003B038551823020F58BE291E10197F1F7CE
:1008F00062E080913A030E945D038091470390E09B
:100900008230910538F0880F991F880F991F05973D
:100910000197F1F7F89480E00E94C3016F3F7F4F89
:100920008F4F9F4F61F410924603789480E0A0CFE0
:1009300064E170E080E090E00E94D303D9CF81E0D1
:100940000E94C3016F3F7F4F8F4F9F4F61F38E0116
:100950000F5F1F4F6E018FEBC81A8EEFD80A780118
:1009600080E00E94C301F7016083718382839383D7
:1009700081E00E94C301F7016483758386839783B6
:10098000F8E0EF0EF11CEC14FD0451F7789430E020
:1009900020E0F801C080D180E280F380448155815D
:1009A00066817781FFEFCF16DF06EF06FF0631F095
:1009B0004F3F8FEF58076807780719F410924603E6
:1009C000B5CFF90183E0F595E7958A95E1F7EB5C02
:1009D000FC4F8081880FC416D506E606F70610F195
:1009E00080832F5F3F4F085F1F4F2832310589F604
:1009F000409139032091350380913603280F332726
:100A0000331F80913703280F311D80913803820FE7
:100A1000932F911D99274817190681F681E080933D
:100A2000460326CF8160DCCFCF92DF92EF92FF9218
:100A30000E940504882349F080913B038B3028F005
:100A40008D3040F08551823030F160E070E080EC14
:100A50009FE71CC06091360370E090E080E00E9448
:100A6000E30E2DEC3CEC4CEC5DE30E941E0F6B01A1
:100A70007C016091350370E090E080E00E94E30E1D
:100A80009B01AC01C701B6010E941410FF90EF90CA
:100A9000DF90CF90089560913503709136037627EB
:100AA0006727762790E080E00E94E10E2DEC3CEC79
:100AB0004CEC5DE30E941E0FE9CF42E050E068E19C
:100AC00071E087E992E00C94FB01CF93DF930E94E1
:100AD0002802EC010E945D058C0F9D1FDF91CF91D4
:100AE0000895CF93DF93FC0101900020E9F731973F
:100AF000AF01481B590BBC0187E992E00E94FB0142
:100B0000EC010E945D058C0F9D1FDF91CF91089530
:100B10004F925F926F927F928F929F92AF92BF920D
:100B2000CF92DF92EF92FF92CF93DF9300D000D06D
:100B3000CDB7DEB76B017C0129833A834B835C839D
:100B4000809134030E949903BC01990F880B990B83
:100B50000E94E30E9B01AC0160E070EC8FE794E42F
:100B60000E94801020E030E040EA50E40E941E0F16
:100B700020E030E040E85FE30E94131020E030E026
:100B800040E251E40E941E0F4B015C0124E330E877
:100B900047EB59E3C701B6010E941E0FA70196015A
:100BA0000E941E0F2B013C0127E938EA4EED5CE361
:100BB000C701B6010E941E0F9B01AC01C301B20127
:100BC0000E94131020ED3BE942EB5FE30E941410FA
:100BD0006B017C0120E030E044E052E469817A81DD
:100BE0008B819C810E9413102AEF3DEE4BEE5AE35D
:100BF0000E941E0F9B01AC01C701B6010E94131099
:100C00009B01AC01C501B4010E9480102FE832E4C1
:100C100049E952E40E9480102EED37E341E350ECA5
:100C20000E94281122E434E349EE52E40E941E0F90
:100C30000F900F900F900F90DF91CF91FF90EF905A
:100C4000DF90CF90BF90AF909F908F907F906F90EC
:100C50005F904F9008950F931F93CF93DF93EC0114
:100C600088819981009759F02A813B81261737079F
:100C700030F081E0DF91CF911F910F9108958B01AA
:100C80006F5F7F4F0E94D813009759F09983888334
:100C90001B830A832C813D81232B59F7FC01108291
:100CA000E8CF80E0E7CFEF92FF920F931F93CF93AF
:100CB000DF936115710541F480E0DF91CF911F91C1
:100CC0000F91FF90EF90089541155105B1F07B0110
:100CD000EC010C811D81040F151FB8010E942B0629
:100CE000882351F3288139818C819D81B701820F3E
:100CF000931F0E949E141D830C8381E0DECFCF934F
:100D0000DF93EC0188819981009711F00E944F13C5
:100D1000198218821D821C821B821A82DF91CF9158
:100D20000895CF93DF93EC01FB0101900020E9F7D8
:100D30003197AF01461B570B0E945306811103C028
:100D4000CE010E947F06CE01DF91CF910895CF930F
:100D5000DF93EC01FB0144815581608171810E9428
:100D60005306811103C0CE010E947F06CE01DF91A0
:100D7000CF910895EF92FF920F931F93CF93DF933C
:100D8000EC017B018A01BA010E942B0681110BC084
:100D9000CE010E947F06CE01DF91CF911F910F916E
:100DA000FF90EF9008951D830C83B701888199818E
:100DB0000E949E14F0CFEF92FF920F931F93CF9358
:100DC000DF93CDB7DEB7A1970FB6F894DEBF0FBEA5
:100DD000CDBF7C01CB01BA01F701118210821382D1
:100DE0001282158214828E010F5F1F4F22E044E0B1
:100DF0000E94570C0097C9F0FC0101900020E9F710
:100E00003197AF01481B590BBC01C7010E94BA06BC
:100E1000A1960FB6F894DEBF0FBECDBFDF91CF9184
:100E20001F910F91FF90EF900895C7010E947F06D8
:100E3000EFCFFC011182108213821282158214827C
:100E4000FB0101900020E9F73197AF01461B570BDA
:100E50000C94BA06FC0180819181009711F00C94EA
:100E60004F1308951F920F920FB60F9211242F93D4
:100E70003F934F935F936F937F938F939F93AF9322
:100E8000BF93EF93FF9387E992E00E948202FF9164
:100E9000EF91BF91AF919F918F917F916F915F91F2
:100EA0004F913F912F910F900FBE0F901F9018956B
:100EB0001F920F920FB60F9211242F938F939F932F
:100EC000EF93FF93E091A702F091A8028081E09157
:100ED000AD02F091AE0282FD1BC090818091B00204
:100EE0008F5F8F732091B102821741F0E091B002C1
:100EF000F0E0E956FD4F958F8093B002FF91EF919E
:100F00009F918F912F910F900FBE0F901F9018956A
:100F10008081F4CF1F920F920FB60F9211242F935E
:100F20003F938F939F93AF93BF9380919302909140
:100F30009402A0919502B09196023091640223E050
:100F4000230F2D3758F50196A11DB11D2093640282
:100F50008093930290939402A0939502B09396028B
:100F60008091650290916602A0916702B09168023B
:100F70000196A11DB11D8093650290936602A09316
:100F80006702B0936802BF91AF919F918F913F919B
:100F90002F910F900FBE0F901F90189526E8230FEA
:100FA0000296A11DB11DD2CF1F920F920FB60F92C4
:100FB00011240F900FBE0F901F901895E7E9F2E0F3
:100FC0001382128288EE93E0A0E0B0E084839583E0
:100FD000A683B7838AE091E09183808385EC90E0DB
:100FE0009587848784EC90E09787868780EC90E0F3
:100FF000918B808B81EC90E0938B828B82EC90E0E4
:10100000958B848B86EC90E0978B868B118E128E5D
:10101000138E148EA5E3B3E080E115968C9315979B
:101020008BE016968C931697EAE3F2E0E49117961C
:10103000EC931797E6E2F2E0E4911896EC93189798
:1010400040E85EE360E070E01D964D935D936D9324
:101050007C9350978EE0809334030895CF93DF9371
:10106000CDB7DEB768970FB6F894DEBF0FBECDBF21
:10107000789484B5826084BD84B5816084BD85B573
:10108000826085BD85B5816085BD80916E0081607F
:1010900080936E0010928100809181008260809325
:1010A0008100809181008160809381008091800027
:1010B0008160809380008091B10084608093B10052
:1010C0008091B00081608093B00080917A0084604C
:1010D00080937A0080917A00826080937A00809178
:1010E0007A00816080937A0080917A008068809392
:1010F0007A001092C100E091A702F091A80282E06C
:101100008083E091A302F091A4021082E091A502F5
:10111000F091A6028FEC80831092AF02E091AB02B7
:10112000F091AC0286E08083E091A902F091AA02DE
:10113000808180618083E091A902F091AA02808180
:1011400088608083E091A902F091AA028081806882
:101150008083E091A902F091AA0280818F7D808333
:101160000E945D058BE191E00E94710584E391E0AE
:101170000E94710562E080913A030E945D032FB7DF
:10118000F8948091930290919402A0919502B0916D
:1011900096022FBF805D9740A109B10980933E035D
:1011A00090933F03A0934003B093410387E3809360
:1011B000470389E491E00E94710560E08FE00E949E
:1011C0005D0361E087E00E945D038FE591E00E948E
:1011D000710560E08EE00E945D0384E791E00E946B
:1011E000710561E089E00E945D0361E088E00E9492
:1011F0005D030E945D0580E891E00E9471050E94F8
:1012000014056B017C01C0927302D0927402E092CB
:101210007502F09276020E940504882309F442C305
:101220000E944A0160936F02709370028093710272
:1012300090937202B701A6018E010F5F1F4FC80184
:101240000E94DB0667E971E0CE0143960E94190710
:10125000B801CE0143960E94A70664EA71E00E949D
:1012600091060E942802CE0143960E942A07C801D7
:101270000E942A0740916F025091700260917102A2
:1012800070917202C8010E94DB0662E572E0CE0135
:1012900043960E941907B801CE0143960E94A70603
:1012A00066EA71E00E9491060E946505CE014396B0
:1012B0000E942A07C8010E942A0760E087E00E9476
:1012C00011038BE5E82E84E0F82EC7010197F1F7B2
:1012D0008FE00E949903BC01990F880B990B0E9423
:1012E000E30E4B015C0180927B0290927C02A09203
:1012F0007D02B0927E028BE990E00197F1F761E008
:1013000087E00E9411038BE397E90197F1F720E052
:1013100030E040EA5BE3C501B4010E941E0F609318
:101320007702709378028093790290937A022BE788
:1013300034E14EE25EE30E941E0F22E133E840E416
:101340005DE30E941E0F20E030E04AE754E40E9473
:101350001E0F6093690270936A0280936B029093F0
:101360006C02B501A401C8010E94DB0668EA71E0C5
:10137000CE0143960E941907B801CE0143960E9400
:10138000A7060E942802CE0143960E942A07C801A0
:101390000E942A0740917702509178026091790269
:1013A00070917A02C8010E94DB066FEB71E0CE01FA
:1013B00043960E941907B801CE0143960E94A706E2
:1013C0000E942802CE0143960E942A07C8010E946B
:1013D0002A074091690250916A0260916B027091F4
:1013E0006C02C8010E94DB066CEC71E0CE014396F2
:1013F0000E941907B801CE0143960E94A7066EED20
:1014000071E00E9491060E946505CE0143960E94FC
:101410002A07C8010E942A0760E087E00E941103A2
:10142000C7010197F1F72091730230917402409146
:1014300075025091760260916F02709170028091F6
:101440007102909172020E9488051C8A1B8A1E8A72
:101450001D8A188E1F8A0E94F210CB014AE0B80143
:101460000E94750CF80101900020E9F73197AF0157
:10147000401B510BB801CE0143960E94BA0665EE9F
:1014800071E0C8010E941907BE016D5E7F4FC8015F
:101490000E94A7066DEE71E00E9491060E9465050C
:1014A000C8010E942A07CE0143960E942A0782EFB4
:1014B00091E00E94710561E089E00E94110361E002
:1014C00088E00E94110364EF71E080E090E00E94E8
:1014D000D3038DEF91E00E94710560E089E00E94E6
:1014E000110360E088E00E94110364EF71E080E086
:1014F00090E00E94D30389E092E00E94710568EEBB
:1015000073E080E090E00E94D3039BE9C92ED12CC8
:101510002BE3A22E27E9B22E30E0832E30E0932E6B
:1015200080E292E00E94710561E089E00E9411036F
:1015300061E088E00E94110364EF71E080E090E0D8
:101540000E94D3030E9414059B01AC0160917F02AD
:101550007091800280918102909182020E94141009
:1015600060937F0270938002809381029093820245
:101570000E94050420E030E040EC5FE7882321F082
:101580000E944A019B01AC01609183027091840228
:1015900080918502909186020E94141060938302CC
:1015A00070938402809385029093860260E087E0C6
:1015B0000E941103C7010197F1F78FE00E94990380
:1015C000BC01990F880B990B0E94E30E2B013C0183
:1015D00040927B0250927C0260927D0270927E0269
:1015E000C6010197F1F761E087E00E941103C50190
:1015F0000197F1F720E030E040EA5BE3C301B2017C
:101600000E941E0F60937702709378028093790294
:1016100090937A022BE734E14EE25EE30E941E0FC4
:1016200022E133E840E45DE30E941E0F20E030E059
:101630004AE754E40E941E0F2091870230918802ED
:101640004091890250918A020E941410609387028F
:10165000709388028093890290938A02209173028A
:1016600030917402409175025091760260916F0240
:101670007091700280917102909172020E948805AF
:101680009B01AC0160918F02709190028091910258
:10169000909192020E94141060938F0270939002B6
:1016A000809391029093920280916D0290916E02CC
:1016B000019690936E0280936D02059709F0D8C051
:1016C00087E392E00E94710520E030E040EA50E4B8
:1016D00060917F02709180028091810290918202DC
:1016E0000E948010AB01BC01C8010E94DB0667E9C3
:1016F00071E0CE0143960E941907B801CE014396CE
:101700000E94A70664EA71E00E9491060E942802E6
:10171000CE0143960E942A07C8010E942A0720E0B2
:1017200030E040EA50E4609183027091840280913D
:101730008502909186020E948010AB01BC01C80115
:101740000E94DB0661E572E0CE0143960E94190714
:10175000B801CE0143960E94A70666EA71E00E9496
:1017600091060E942802CE0143960E942A07C801D2
:101770000E942A0720E030E040EA50E460918702AE
:10178000709188028091890290918A020E94801053
:10179000AB01BC01C8010E94DB066CEC71E0CE011C
:1017A00043960E941907B801CE0143960E94A706EE
:1017B0006EED71E00E9491060E942802CE014396D0
:1017C0000E942A07C8010E942A0720E030E040EA70
:1017D00050E460918F0270919002809191029091FB
:1017E00092020E948010AB01BC01C8010E94DB067E
:1017F00065EE71E0CE0143960E941907B801CE0153
:1018000043960E94A7066DEE71E00E9491060E9429
:101810006505CE0143960E942A07C8010E942A0747
:1018200010927F0210928002109281021092820226
:101830001092830210928402109285021092860206
:1018400010928702109288021092890210928A02E6
:1018500010928B0210928C0210928D0210928E02C6
:1018600010928F02109290021092910210929202A6
:1018700060E089E00E94110360E088E00E941103AB
:1018800068EE73E080E090E00E94D303811491043D
:1018900009F446CE0E946E02882309F441CE0E94CC
:1018A00000003ECE60E070E080EC9FE7BBCCEF92A2
:1018B0000F931F93CF93DF93E80134E047FD34E1AA
:1018C000042E000C550B57FF03C05195419551094B
:1018D000E32E022F242FAE010E949A0CCE01DF913D
:1018E000CF911F910F91EF900895BB274A3031F4AB
:1018F000992322F4BDE2909581959F4F0C94810C21
:10190000BB27FB015527AA27880F991FAA1FA417D9
:1019100010F0A41B83955051B9F7A05DAA3308F0CD
:10192000A95DA193009779F7B111B1931192CB0101
:101930000C94D10EA9E0B0E0E0EAFCE00C94E20FD8
:101940006A01F22EB02E102FFBE3AF2EA01608F482
:101950001BE31F5F012F27E0AE014F5F5F4F0E9427
:10196000F90DBC018981982F9970913009F43FC01D
:101970009BE2E1FC04C09E2D9170E0FC3AC05E2D1C
:101980005071E82FE87083FF46C084E0911101C0D8
:1019900083E0EF2DE81B8F1508F0E0E0D6018E2FD5
:1019A00020E2552351F1992329F0D6019C93C601D9
:1019B00001966C0196012D5F3F4FE2FE24C08EE43C
:1019C000D6018C9391E411969C93119712968C9367
:1019D000D9018E2F90E281111BC0E20FF32FF11D70
:1019E00010828EEF9FEF2996ECE00C94FE0F9DE2A3
:1019F000C6CF90E2C4CF2D9381508111FCCFCE0E83
:101A0000D11CE0E0D0CF8EE6D6018C9391E6DBCFFF
:101A10009D938150E0CF482F447082FF3DC084E009
:101A2000911101C083E08F1510F4EF2DE81BD60152
:101A30008E2F20E2552309F1992329F0D6019C939A
:101A4000C60101966C0196012D5F3F4FE2FE1BC05F
:101A500089E4D6018C938EE411968C93119786E4D9
:101A600012968C93D9018E2F90E2882309F4B5CF7A
:101A70009D938150FACF2D9381508111FCCFCE0ED2
:101A8000D11CE0E0D9CF89E6D6018C938EE6119681
:101A90008C93119786E6E4CF9B0177FF02C030E07C
:101AA00020E0A1E0B0E0911102C0B0E0A0E0F901B7
:101AB0003196AE0FBF1F8B2C912CBB2009F461C057
:101AC0005401EFEFAE1ABE0AAA0DBB1DFA161B0693
:101AD00019F014F04F2D4A1B511188C0E3FC59C076
:101AE0007601A42FB0E2A1114FC0C40ED11C9923DE
:101AF00009F45BC040E0D6011196F60190836D01B8
:101B0000552309F448C0012F060F9A81582F5071B0
:101B100084FF03C0913309F4015010160CF047C044
:101B2000093008F008E0EEE2FE2E5B01A01AB108D1
:101B300085019194819491082F3F320729F4D601B1
:101B4000FC92F60131966F016217730794F1021748
:101B500013077CF5DB01A21BB30BAA24A394B12CC1
:101B6000AC0EBD1EAA0DBB1D11968C9121503109E2
:101B7000D601119628153905F4F0F60180836D0120
:101B8000DBCFB12CA12CA0CFF701B1937F01A150E5
:101B9000AACF9111B0CFD601942F50E302C05D932C
:101BA00091509111FCCFC40ED11C40E0ACCF01E0AC
:101BB000BACF80E3DBCF6217730731F4963388F432
:101BC000953311F4552369F0F6018083FD01842FCC
:101BD00090E2811108C0A40FB11D1C9290E080E03A
:101BE00002CF81E3F1CF91938150F3CF911183CF55
:101BF0008ACF283008F027E03327DA01990F311D0A
:101C000087FD916000966105710539F432602E5FA1
:101C10003D9330E32A95E1F708959F3F30F08038F7
:101C20007105610509F03C5F3C5F3D93913008F020
:101C30008068911DDF93CF931F930F93FF92EF92D4
:101C4000192F987F9695E92F96959695E90FFF277E
:101C5000EC5BFE4F99273327EE24FF24A701E70111
:101C600005900894079428F4360FE71EF81E491FC4
:101C7000511D660F771F881F991F0694A1F70590C5
:101C8000079428F4E70EF81E491F561FC11D770F51
:101C9000881F991F661F0694A1F70590079428F4E2
:101CA000F80E491F561FC71FD11D880F991F661FA9
:101CB000771F0694A1F70590079420F4490F561F4B
:101CC000C71FD81F990F661F771F881F0694A9F793
:101CD00084911095177041F0D695C7955795479503
:101CE000F794E7941A95C1F7EAEEF0E0689415903E
:101CF000159135916591959105907FE27395E11865
:101D0000F10A430B560BC90BD009C0F7E10CF11EC9
:101D1000431F561FC91FD01D7EF4703311F48A95DE
:101D2000E6CFE894015030F0080F0AF400270217BC
:101D300008F4202F2395022F7A3328F079E37D933E
:101D40002A95E9F710C07D932A9589F60694979510
:101D50006795379517951794E118F10A430B560BC1
:101D6000C90BD00998F023957E9173957A3308F0CA
:101D700070E37C932013B8F77E9170617D9330F00F
:101D8000839571E37D9370E32A95E1F71124EF9039
:101D9000FF900F911F91CF91DF91992787FD90952B
:101DA0000895DC01FC01672F71917723E1F73297E9
:101DB00004C07C916D9370836291AE17BF07C8F326
:101DC0000895E89409C097FB3EF49095809570952E
:101DD00061957F4F8F4F9F4F9923A9F0F92F96E977
:101DE000BB279395F695879577956795B795F111EC
:101DF000F8CFFAF4BB0F11F460FF1BC06F5F7F4F89
:101E00008F4F9F4F16C0882311F096E911C077239A
:101E100021F09EE8872F762F05C0662371F096E8A3
:101E2000862F70E060E02AF09A95660F771F881F72
:101E3000DAF7880F9695879597F908950E94310FE4
:101E40000C94A20F0E94940F38F00E949B0F20F078
:101E5000952311F00C948B0F0C94910F11240C947A
:101E6000D60F0E94B30F70F3959FC1F3950F50E00A
:101E7000551F629FF001729FBB27F00DB11D639F3C
:101E8000AA27F00DB11DAA1F649F6627B00DA11DE2
:101E9000661F829F2227B00DA11D621F739FB00D88
:101EA000A11D621F839FA00D611D221F749F3327F8
:101EB000A00D611D231F849F600D211D822F762F91
:101EC0006A2F11249F5750409AF0F1F088234AF06E
:101ED000EE0FFF1FBB1F661F771F881F91505040DA
:101EE000A9F79E3F510580F00C948B0F0C94D60FF0
:101EF0005F3FE4F3983ED4F3869577956795B79561
:101F0000F795E7959F5FC1F7FE2B880F911D96957A
:101F1000879597F9089597F99F6780E870E060E0EA
:101F200008959FEF80EC089500240A941616170672
:101F300018060906089500240A94121613061406BA
:101F400005060895092E0394000C11F4882352F01D
:101F5000BB0F40F4BF2B11F460FF04C06F5F7F4FD5
:101F60008F4F9F4F089557FD9058440F551F59F0BC
:101F70005F3F71F04795880F97FB991F61F09F3F76
:101F800079F087950895121613061406551FF2CF9F
:101F90004695F1DF08C0161617061806991FF1CFEF
:101FA00086957105610508940895E894BB27662716
:101FB0007727CB0197F908952F923F924F925F9226
:101FC0006F927F928F929F92AF92BF92CF92DF9249
:101FD000EF92FF920F931F93CF93DF93CDB7DEB7AE
:101FE000CA1BDB0B0FB6F894DEBF0FBECDBF099442
:101FF0002A88398848885F846E847D848C849B8499
:10200000AA84B984C884DF80EE80FD800C811B81A6
:10201000AA81B981CE0FD11D0FB6F894DEBF0FBED5
:10202000CDBFED0108955058BB27AA270E942B1061
:102030000C94A20F0E94940F38F00E949B0F20F086
:1020400039F49F3F19F426F40C94910F0EF4E095A7
:10205000E7FB0C948B0FE92F0E94B30F58F3BA17CC
:10206000620773078407950720F079F4A6F50C94AE
:10207000D50F0EF4E0950B2EBA2FA02D0B01B90150
:1020800090010C01CA01A0011124FF27591B99F0EE
:10209000593F50F4503E68F11A16F040A22F232FFA
:1020A000342F4427585FF3CF469537952795A7954A
:1020B000F0405395C9F77EF41F16BA0B620B730BF1
:1020C000840BBAF09150A1F0FF0FBB1F661F771F62
:1020D000881FC2F70EC0BA0F621F731F841F48F417
:1020E000879577956795B795F7959E3F08F0B0CFA0
:1020F0009395880F08F09927EE0F97958795089587
:102100000E9494100C94A20F0E949B0F58F00E9402
:10211000940F40F029F45F3F29F00C948B0F51117C
:102120000C94D60F0C94910F0E94B30F68F399236F
:10213000B1F3552391F3951B550BBB27AA276217C3
:102140007307840738F09F5F5F4F220F331F441FD0
:10215000AA1FA9F335D00E2E3AF0E0E832D0915004
:102160005040E695001CCAF72BD0FE2F29D0660FF1
:10217000771F881FBB1F261737074807AB07B0E834
:1021800009F0BB0B802DBF01FF2793585F4F3AF03A
:102190009E3F510578F00C948B0F0C94D60F5F3F47
:1021A000E4F3983ED4F3869577956795B795F795C0
:1021B0009F5FC9F7880F911D9695879597F90895A8
:1021C000E1E0660F771F881FBB1F62177307840744
:1021D000BA0720F0621B730B840BBA0BEE1F88F753
:1021E000E09508950E94F9106894B1110C94D60FEF
:1021F00008950E94BB0F88F09F5798F0B92F992738
:10220000B751B0F0E1F0660F771F881F991F1AF0E1
:10221000BA95C9F714C0B13091F00E94D50FB1E062
:1022200008950C94D50F672F782F8827B85F39F061
:10223000B93FCCF3869577956795B395D9F73EF47A
:1022400090958095709561957F4F8F4F9F4F089522
:10225000FA01EE0FFF1F309621053105A1F161153E
:10226000710561F48038BFE39B0749F168949038A9
:10227000810561F08038BFEF9B0741F099234AF553
:10228000FF3FE1053105210519F1E8940894E79530
:10229000D901AA2329F4AB2FBE2FF85FD0F310C0C9
:1022A000FF5F70F4A695E0F7F73950F019F0FF3AA8
:1022B00038F49F779F930DD00F9007FC90580895A6
:1022C00046F00C94910F60E070E080E89FE3089581
:1022D0004FE79F775F934F933F932F930E94231273
:1022E0002F913F914F915F910E941E0F0C9480118E
:1022F00029F416F00C948B0F0C94D50F0C94910FBD
:102300000E94BB0FA8F39638A0F707F80F92E89445
:102310002BE33AEA48EB5FE70E94340F0F920F92EB
:102320000F924DB75EB70F920E946B12E8E6F0E095
:102330000E94B2114F915F91EF91FF91E595EE1FD1
:10234000FF1F49F0FE57E0684427EE0F441FFA953F
:10235000E1F74195550B0E94E5110F9007FE0C9493
:10236000D9110895DF93CF931F930F93FF92EF92AC
:10237000DF927B018C01689406C0DA2EEF010E9487
:10238000310FFE01E894A591259135914591559124
:10239000A6F3EF010E942B10FE019701A801DA9429
:1023A00069F7DF90EF90FF900F911F91CF91DF9130
:1023B00008959B01AC0160E070E080E89FE30C941D
:1023C00080100C948B0F0C949F120E94BB0FD8F3BB
:1023D0009923C9F3940F511DA3F39150504094F0E9
:1023E00059F0882332F0660F771F881F91505040B4
:1023F000C1F79E3F51052CF7880F911D9695879543
:1024000097F908955F3FACF0983E9CF0BB27869506
:1024100077956795B79508F4B1609395C1F7BB0FB1
:1024200058F711F460FFE8CF6F5F7F4F8F4F9F4FDA
:10243000E3CF0C94D60F16F00C949F120C94910FCE
:1024400068940C948B0F0E94BB0FA8F39923C1F3DF
:10245000AEF3DF93CF931F930F93FF92C92FDD2726
:1024600088232AF02197660F771F881FDAF720E06C
:1024700030E040E85FEB9FE3883920F0803E38F0A1
:1024800021968F770E941410E0E9F0E004C00E94CA
:102490001410EDEBF0E00E94B2118B01BE01EC01D3
:1024A000FB2E6F5771097595771F880B990B0E944A
:1024B000E30E28E132E741E35FE30E94310FAF2DE5
:1024C0009801AE01FF900F911F91CF91DF910E9473
:1024D0002B100C94A20FFA01DC01AA0FBB1F9B0169
:1024E000AC01BF5728F4222733274427507820C057
:1024F000B75190F4AB2F0024469537952795011CD2
:10250000A395D2F3002071F0220F331F441FB3951F
:10251000DAF30ED00C94131061307105A0E88A072D
:10252000B94630F49B01AC0166277727882790785D
:10253000309621F0208331834283538308959F3F57
:1025400031F0915020F4879577956795B795880F6E
:10255000911D9695879597F90895EE0FFF1F0590A9
:10256000F491E02D09940F931F93CF93DF93823062
:10257000910510F482E090E0E0914A03F0914B0362
:1025800030E020E0B0E0A0E0309799F4211531056B
:1025900009F44AC0281B390B24303105D8F58A814B
:1025A0009B816115710589F1FB0193838283FE0193
:1025B00011C0408151810281138148175907E0F011
:1025C0004817590799F4109761F012960C931297D7
:1025D00013961C933296CF01DF91CF911F910F91EB
:1025E000089500934A0310934B03F4CF211531054E
:1025F00051F04217530738F0A901DB019A01BD01E0
:10260000DF01F801C1CFEF01F9CF90934B03809325
:102610004A03CDCFFE01E20FF31F81939193225025
:10262000310939832883D7CF20914803309149035A
:10263000232B41F42091020130910301309349038F
:1026400020934803209100013091010121153105AB
:1026500041F42DB73EB74091040150910501241B70
:10266000350BE0914803F0914903E217F307A0F41A
:102670002E1B3F0B2817390778F0AC014E5F5F4FD8
:102680002417350748F04E0F5F1F509349034093BE
:102690004803819391939FCFF0E0E0E09CCFCF93EC
:1026A000DF930097E9F0FC01329713821282A09128
:1026B0004A03B0914B03ED0130E020E01097A1F404
:1026C00020813181820F931F20914803309149036B
:1026D0002817390709F061C0F0934903E0934803D4
:1026E000DF91CF910895EA01CE17DF07E8F54A811F
:1026F0005B819E0141155105B1F7E901FB83EA8336
:1027000049915991C40FD51FEC17FD0761F48081E1
:1027100091810296840F951FE901998388838281B4
:1027200093819B838A83F0E0E0E012968D919C91E7
:1027300013970097B9F52D913C911197CD01029611
:10274000820F931F209148033091490328173907BE
:1027500039F6309751F510924B0310924A03B0931B
:102760004903A0934803BCCFD383C28340815181E6
:10277000840F951FC817D90761F44E5F5F4F88819A
:102780009981480F591F518340838A819B8193838C
:1027900082832115310509F0B0CFF0934B03E0930C
:1027A0004A039ECFFD01DC01C0CF13821282D7CF36
:1027B000B0E0A0E0EEEDF3E10C94DE0F8C010097A9
:1027C00051F4CB010E94B3128C01C801CDB7DEB722
:1027D000E0E10C94FA0FFC01E60FF71F9C01225078
:1027E0003109E217F30708F49DC0D901CD91DC91BE
:1027F0001197C617D70798F0C530D10530F3CE0131
:1028000004978617970708F3C61BD70B2297C19327
:10281000D1936D937C93CF010E944F13D6CF5B0170
:10282000AC1ABD0A4C018C0E9D1EA0914A03B091BA
:102830004B03512C412CF12CE12C109731F5809158
:102840004803909149038815990509F05CC0461624
:10285000570608F058C0809100019091010100973F
:1028600041F48DB79EB74091040150910501841B3E
:10287000950BE817F90708F055C0F0934903E0936A
:102880004803F90171836083A0CF8D919C911197CA
:1028900012966C90129713967C901397A815B90511
:1028A00059F56C0142E0C40ED11CCA14DB0420F1BE
:1028B000AC014A195B09DA011296159780F0628221
:1028C000738251834083D9016D937C93E114F104A9
:1028D00071F0D7011396FC93EE93129776CF229660
:1028E0008C0F9D1FF90191838083F301EFCFF0934B
:1028F0004B03E0934A0369CF4816590608F42C01AC
:102900007D01D3019ACFCB010E94B3127C010097C5
:1029100049F0AE01B8010E949514C8010E944F13FE
:10292000870153CF10E000E050CFFB01DC0102C073
:1029300001900D9241505040D8F70895FB01DC0101
:0E29400001900D920020E1F70895F894FFCF6A
:10294E0000004C03800000000000A402FB013102D5
:10295E00F1026202400254020D0A002A2A2A2A2A91
:10296E002053454E534F522054455354202A2A2A61
:10297E002A2A2A002A2A20534554204448542053F8
:10298E00454E534F52202A2A002A2A2053455420BE
:10299E00445553542053454E534F52202A2A002A51
:1029AE002A2053455420434F322053454E534F5205
:1029BE00202A2A002D20536574206D6F746F7200CB
:1029CE002A2A2046495253542054455354205354D6
:1029DE00415254202A2A002D2048756D696469746D
:1029EE00793A2000250043002D2052617720566150
:1029FE006C75652028302D31303233293A20002075
:102A0E002D20566F6C746167653A2000202D20448E
:102A1E007573742044656E736974793A200020755D
:102A2E00672F6D33002D20434F323A2000207070F7
:102A3E006D002D204D6F746F72206F6E002D204D26
:102A4E006F746F72206F6666002A2A2046495253B1
:102A5E0054205445535420454E444544202A2A00C0
:102A6E002A2A204F6273657276696E672056616CF2
:102A7E00756573202A2A002A2A20417667204F6224
:102A8E007365727665642056616C756573202A2AAB
:102A9E0000202D2054656D70657261747572653AF3
:022AAE00200006
:00000001FF
